{
  "_format": "hh-sol-artifact-1",
  "contractName": "PancakeSwapLottery",
  "sourceName": "contracts/PancakeSwapLottery.sol",
  "abi": [
    {
      "inputs": [
        {
          "internalType": "address",
          "name": "_cakeTokenAddress",
          "type": "address"
        },
        {
          "internalType": "address",
          "name": "_randomGeneratorAddress",
          "type": "address"
        }
      ],
      "stateMutability": "nonpayable",
      "type": "constructor"
    },
    {
      "anonymous": false,
      "inputs": [
        {
          "indexed": false,
          "internalType": "address",
          "name": "token",
          "type": "address"
        },
        {
          "indexed": false,
          "internalType": "uint256",
          "name": "amount",
          "type": "uint256"
        }
      ],
      "name": "AdminTokenRecovery",
      "type": "event"
    },
    {
      "anonymous": false,
      "inputs": [
        {
          "indexed": true,
          "internalType": "uint256",
          "name": "lotteryId",
          "type": "uint256"
        },
        {
          "indexed": false,
          "internalType": "uint256",
          "name": "firstTicketIdNextLottery",
          "type": "uint256"
        }
      ],
      "name": "LotteryClose",
      "type": "event"
    },
    {
      "anonymous": false,
      "inputs": [
        {
          "indexed": true,
          "internalType": "uint256",
          "name": "lotteryId",
          "type": "uint256"
        },
        {
          "indexed": false,
          "internalType": "uint256",
          "name": "injectedAmount",
          "type": "uint256"
        }
      ],
      "name": "LotteryInjection",
      "type": "event"
    },
    {
      "anonymous": false,
      "inputs": [
        {
          "indexed": true,
          "internalType": "uint256",
          "name": "lotteryId",
          "type": "uint256"
        },
        {
          "indexed": false,
          "internalType": "uint256",
          "name": "finalNumber",
          "type": "uint256"
        },
        {
          "indexed": false,
          "internalType": "uint256",
          "name": "countWinningTickets",
          "type": "uint256"
        }
      ],
      "name": "LotteryNumberDrawn",
      "type": "event"
    },
    {
      "anonymous": false,
      "inputs": [
        {
          "indexed": true,
          "internalType": "uint256",
          "name": "lotteryId",
          "type": "uint256"
        },
        {
          "indexed": false,
          "internalType": "uint256",
          "name": "startTime",
          "type": "uint256"
        },
        {
          "indexed": false,
          "internalType": "uint256",
          "name": "endTime",
          "type": "uint256"
        },
        {
          "indexed": false,
          "internalType": "uint256",
          "name": "priceTicketInCake",
          "type": "uint256"
        },
        {
          "indexed": false,
          "internalType": "uint256",
          "name": "firstTicketId",
          "type": "uint256"
        },
        {
          "indexed": false,
          "internalType": "uint256",
          "name": "injectedAmount",
          "type": "uint256"
        }
      ],
      "name": "LotteryOpen",
      "type": "event"
    },
    {
      "anonymous": false,
      "inputs": [
        {
          "indexed": false,
          "internalType": "address",
          "name": "operator",
          "type": "address"
        },
        {
          "indexed": false,
          "internalType": "address",
          "name": "treasury",
          "type": "address"
        },
        {
          "indexed": false,
          "internalType": "address",
          "name": "injector",
          "type": "address"
        }
      ],
      "name": "NewOperatorAndTreasuryAndInjectorAddresses",
      "type": "event"
    },
    {
      "anonymous": false,
      "inputs": [
        {
          "indexed": true,
          "internalType": "address",
          "name": "randomGenerator",
          "type": "address"
        }
      ],
      "name": "NewRandomGenerator",
      "type": "event"
    },
    {
      "anonymous": false,
      "inputs": [
        {
          "indexed": true,
          "internalType": "address",
          "name": "previousOwner",
          "type": "address"
        },
        {
          "indexed": true,
          "internalType": "address",
          "name": "newOwner",
          "type": "address"
        }
      ],
      "name": "OwnershipTransferred",
      "type": "event"
    },
    {
      "anonymous": false,
      "inputs": [
        {
          "indexed": true,
          "internalType": "address",
          "name": "claimer",
          "type": "address"
        },
        {
          "indexed": false,
          "internalType": "uint256",
          "name": "amount",
          "type": "uint256"
        },
        {
          "indexed": true,
          "internalType": "uint256",
          "name": "lotteryId",
          "type": "uint256"
        },
        {
          "indexed": false,
          "internalType": "uint256",
          "name": "numberTickets",
          "type": "uint256"
        }
      ],
      "name": "TicketsClaim",
      "type": "event"
    },
    {
      "anonymous": false,
      "inputs": [
        {
          "indexed": true,
          "internalType": "address",
          "name": "buyer",
          "type": "address"
        },
        {
          "indexed": true,
          "internalType": "uint256",
          "name": "lotteryId",
          "type": "uint256"
        },
        {
          "indexed": false,
          "internalType": "uint256",
          "name": "numberTickets",
          "type": "uint256"
        }
      ],
      "name": "TicketsPurchase",
      "type": "event"
    },
    {
      "inputs": [],
      "name": "MAX_LENGTH_LOTTERY",
      "outputs": [
        {
          "internalType": "uint256",
          "name": "",
          "type": "uint256"
        }
      ],
      "stateMutability": "view",
      "type": "function"
    },
    {
      "inputs": [],
      "name": "MAX_TREASURY_FEE",
      "outputs": [
        {
          "internalType": "uint256",
          "name": "",
          "type": "uint256"
        }
      ],
      "stateMutability": "view",
      "type": "function"
    },
    {
      "inputs": [],
      "name": "MIN_DISCOUNT_DIVISOR",
      "outputs": [
        {
          "internalType": "uint256",
          "name": "",
          "type": "uint256"
        }
      ],
      "stateMutability": "view",
      "type": "function"
    },
    {
      "inputs": [],
      "name": "MIN_LENGTH_LOTTERY",
      "outputs": [
        {
          "internalType": "uint256",
          "name": "",
          "type": "uint256"
        }
      ],
      "stateMutability": "view",
      "type": "function"
    },
    {
      "inputs": [
        {
          "internalType": "uint256",
          "name": "_lotteryId",
          "type": "uint256"
        },
        {
          "internalType": "uint32[]",
          "name": "_ticketNumbers",
          "type": "uint32[]"
        }
      ],
      "name": "buyTickets",
      "outputs": [],
      "stateMutability": "nonpayable",
      "type": "function"
    },
    {
      "inputs": [],
      "name": "cakeToken",
      "outputs": [
        {
          "internalType": "contract IERC20",
          "name": "",
          "type": "address"
        }
      ],
      "stateMutability": "view",
      "type": "function"
    },
    {
      "inputs": [
        {
          "internalType": "uint256",
          "name": "_discountDivisor",
          "type": "uint256"
        },
        {
          "internalType": "uint256",
          "name": "_priceTicket",
          "type": "uint256"
        },
        {
          "internalType": "uint256",
          "name": "_numberTickets",
          "type": "uint256"
        }
      ],
      "name": "calculateTotalPriceForBulkTickets",
      "outputs": [
        {
          "internalType": "uint256",
          "name": "",
          "type": "uint256"
        }
      ],
      "stateMutability": "pure",
      "type": "function"
    },
    {
      "inputs": [
        {
          "internalType": "address",
          "name": "_randomGeneratorAddress",
          "type": "address"
        }
      ],
      "name": "changeRandomGenerator",
      "outputs": [],
      "stateMutability": "nonpayable",
      "type": "function"
    },
    {
      "inputs": [
        {
          "internalType": "uint256",
          "name": "_lotteryId",
          "type": "uint256"
        },
        {
          "internalType": "uint256[]",
          "name": "_ticketIds",
          "type": "uint256[]"
        },
        {
          "internalType": "uint32[]",
          "name": "_brackets",
          "type": "uint32[]"
        }
      ],
      "name": "claimTickets",
      "outputs": [],
      "stateMutability": "nonpayable",
      "type": "function"
    },
    {
      "inputs": [
        {
          "internalType": "uint256",
          "name": "_lotteryId",
          "type": "uint256"
        }
      ],
      "name": "closeLottery",
      "outputs": [],
      "stateMutability": "nonpayable",
      "type": "function"
    },
    {
      "inputs": [],
      "name": "currentLotteryId",
      "outputs": [
        {
          "internalType": "uint256",
          "name": "",
          "type": "uint256"
        }
      ],
      "stateMutability": "view",
      "type": "function"
    },
    {
      "inputs": [],
      "name": "currentTicketId",
      "outputs": [
        {
          "internalType": "uint256",
          "name": "",
          "type": "uint256"
        }
      ],
      "stateMutability": "view",
      "type": "function"
    },
    {
      "inputs": [
        {
          "internalType": "uint256",
          "name": "_lotteryId",
          "type": "uint256"
        },
        {
          "internalType": "bool",
          "name": "_autoInjection",
          "type": "bool"
        }
      ],
      "name": "drawFinalNumberAndMakeLotteryClaimable",
      "outputs": [],
      "stateMutability": "nonpayable",
      "type": "function"
    },
    {
      "inputs": [
        {
          "internalType": "uint256",
          "name": "_lotteryId",
          "type": "uint256"
        },
        {
          "internalType": "uint256",
          "name": "_amount",
          "type": "uint256"
        }
      ],
      "name": "injectFunds",
      "outputs": [],
      "stateMutability": "nonpayable",
      "type": "function"
    },
    {
      "inputs": [],
      "name": "injectorAddress",
      "outputs": [
        {
          "internalType": "address",
          "name": "",
          "type": "address"
        }
      ],
      "stateMutability": "view",
      "type": "function"
    },
    {
      "inputs": [],
      "name": "maxNumberTicketsPerBuyOrClaim",
      "outputs": [
        {
          "internalType": "uint256",
          "name": "",
          "type": "uint256"
        }
      ],
      "stateMutability": "view",
      "type": "function"
    },
    {
      "inputs": [],
      "name": "maxPriceTicketInCake",
      "outputs": [
        {
          "internalType": "uint256",
          "name": "",
          "type": "uint256"
        }
      ],
      "stateMutability": "view",
      "type": "function"
    },
    {
      "inputs": [],
      "name": "minPriceTicketInCake",
      "outputs": [
        {
          "internalType": "uint256",
          "name": "",
          "type": "uint256"
        }
      ],
      "stateMutability": "view",
      "type": "function"
    },
    {
      "inputs": [],
      "name": "operatorAddress",
      "outputs": [
        {
          "internalType": "address",
          "name": "",
          "type": "address"
        }
      ],
      "stateMutability": "view",
      "type": "function"
    },
    {
      "inputs": [],
      "name": "owner",
      "outputs": [
        {
          "internalType": "address",
          "name": "",
          "type": "address"
        }
      ],
      "stateMutability": "view",
      "type": "function"
    },
    {
      "inputs": [],
      "name": "pendingInjectionNextLottery",
      "outputs": [
        {
          "internalType": "uint256",
          "name": "",
          "type": "uint256"
        }
      ],
      "stateMutability": "view",
      "type": "function"
    },
    {
      "inputs": [],
      "name": "randomGenerator",
      "outputs": [
        {
          "internalType": "contract IRandomNumberGenerator",
          "name": "",
          "type": "address"
        }
      ],
      "stateMutability": "view",
      "type": "function"
    },
    {
      "inputs": [
        {
          "internalType": "address",
          "name": "_tokenAddress",
          "type": "address"
        },
        {
          "internalType": "uint256",
          "name": "_tokenAmount",
          "type": "uint256"
        }
      ],
      "name": "recoverWrongTokens",
      "outputs": [],
      "stateMutability": "nonpayable",
      "type": "function"
    },
    {
      "inputs": [],
      "name": "renounceOwnership",
      "outputs": [],
      "stateMutability": "nonpayable",
      "type": "function"
    },
    {
      "inputs": [
        {
          "internalType": "uint256",
          "name": "_maxNumberTicketsPerBuy",
          "type": "uint256"
        }
      ],
      "name": "setMaxNumberTicketsPerBuy",
      "outputs": [],
      "stateMutability": "nonpayable",
      "type": "function"
    },
    {
      "inputs": [
        {
          "internalType": "uint256",
          "name": "_minPriceTicketInCake",
          "type": "uint256"
        },
        {
          "internalType": "uint256",
          "name": "_maxPriceTicketInCake",
          "type": "uint256"
        }
      ],
      "name": "setMinAndMaxTicketPriceInCake",
      "outputs": [],
      "stateMutability": "nonpayable",
      "type": "function"
    },
    {
      "inputs": [
        {
          "internalType": "address",
          "name": "_operatorAddress",
          "type": "address"
        },
        {
          "internalType": "address",
          "name": "_treasuryAddress",
          "type": "address"
        },
        {
          "internalType": "address",
          "name": "_injectorAddress",
          "type": "address"
        }
      ],
      "name": "setOperatorAndTreasuryAndInjectorAddresses",
      "outputs": [],
      "stateMutability": "nonpayable",
      "type": "function"
    },
    {
      "inputs": [
        {
          "internalType": "uint256",
          "name": "_endTime",
          "type": "uint256"
        },
        {
          "internalType": "uint256",
          "name": "_priceTicketInCake",
          "type": "uint256"
        },
        {
          "internalType": "uint256",
          "name": "_discountDivisor",
          "type": "uint256"
        },
        {
          "internalType": "uint256[6]",
          "name": "_rewardsBreakdown",
          "type": "uint256[6]"
        },
        {
          "internalType": "uint256",
          "name": "_treasuryFee",
          "type": "uint256"
        }
      ],
      "name": "startLottery",
      "outputs": [],
      "stateMutability": "nonpayable",
      "type": "function"
    },
    {
      "inputs": [
        {
          "internalType": "address",
          "name": "newOwner",
          "type": "address"
        }
      ],
      "name": "transferOwnership",
      "outputs": [],
      "stateMutability": "nonpayable",
      "type": "function"
    },
    {
      "inputs": [],
      "name": "treasuryAddress",
      "outputs": [
        {
          "internalType": "address",
          "name": "",
          "type": "address"
        }
      ],
      "stateMutability": "view",
      "type": "function"
    },
    {
      "inputs": [],
      "name": "viewCurrentLotteryId",
      "outputs": [
        {
          "internalType": "uint256",
          "name": "",
          "type": "uint256"
        }
      ],
      "stateMutability": "view",
      "type": "function"
    },
    {
      "inputs": [
        {
          "internalType": "uint256",
          "name": "_lotteryId",
          "type": "uint256"
        }
      ],
      "name": "viewLottery",
      "outputs": [
        {
          "components": [
            {
              "internalType": "enum PancakeSwapLottery.Status",
              "name": "status",
              "type": "uint8"
            },
            {
              "internalType": "uint256",
              "name": "startTime",
              "type": "uint256"
            },
            {
              "internalType": "uint256",
              "name": "endTime",
              "type": "uint256"
            },
            {
              "internalType": "uint256",
              "name": "priceTicketInCake",
              "type": "uint256"
            },
            {
              "internalType": "uint256",
              "name": "discountDivisor",
              "type": "uint256"
            },
            {
              "internalType": "uint256[6]",
              "name": "rewardsBreakdown",
              "type": "uint256[6]"
            },
            {
              "internalType": "uint256",
              "name": "treasuryFee",
              "type": "uint256"
            },
            {
              "internalType": "uint256[6]",
              "name": "cakePerBracket",
              "type": "uint256[6]"
            },
            {
              "internalType": "uint256[6]",
              "name": "countWinnersPerBracket",
              "type": "uint256[6]"
            },
            {
              "internalType": "uint256",
              "name": "firstTicketId",
              "type": "uint256"
            },
            {
              "internalType": "uint256",
              "name": "firstTicketIdNextLottery",
              "type": "uint256"
            },
            {
              "internalType": "uint256",
              "name": "amountCollectedInCake",
              "type": "uint256"
            },
            {
              "internalType": "uint32",
              "name": "finalNumber",
              "type": "uint32"
            }
          ],
          "internalType": "struct PancakeSwapLottery.Lottery",
          "name": "",
          "type": "tuple"
        }
      ],
      "stateMutability": "view",
      "type": "function"
    },
    {
      "inputs": [
        {
          "internalType": "uint256[]",
          "name": "_ticketIds",
          "type": "uint256[]"
        }
      ],
      "name": "viewNumbersAndStatusesForTicketIds",
      "outputs": [
        {
          "internalType": "uint32[]",
          "name": "",
          "type": "uint32[]"
        },
        {
          "internalType": "bool[]",
          "name": "",
          "type": "bool[]"
        }
      ],
      "stateMutability": "view",
      "type": "function"
    },
    {
      "inputs": [
        {
          "internalType": "uint256",
          "name": "_lotteryId",
          "type": "uint256"
        },
        {
          "internalType": "uint256",
          "name": "_ticketId",
          "type": "uint256"
        },
        {
          "internalType": "uint32",
          "name": "_bracket",
          "type": "uint32"
        }
      ],
      "name": "viewRewardsForTicketId",
      "outputs": [
        {
          "internalType": "uint256",
          "name": "",
          "type": "uint256"
        }
      ],
      "stateMutability": "view",
      "type": "function"
    },
    {
      "inputs": [
        {
          "internalType": "address",
          "name": "_user",
          "type": "address"
        },
        {
          "internalType": "uint256",
          "name": "_lotteryId",
          "type": "uint256"
        },
        {
          "internalType": "uint256",
          "name": "_cursor",
          "type": "uint256"
        },
        {
          "internalType": "uint256",
          "name": "_size",
          "type": "uint256"
        }
      ],
      "name": "viewUserInfoForLotteryId",
      "outputs": [
        {
          "internalType": "uint256[]",
          "name": "",
          "type": "uint256[]"
        },
        {
          "internalType": "uint32[]",
          "name": "",
          "type": "uint32[]"
        },
        {
          "internalType": "bool[]",
          "name": "",
          "type": "bool[]"
        },
        {
          "internalType": "uint256",
          "name": "",
          "type": "uint256"
        }
      ],
      "stateMutability": "view",
      "type": "function"
    }
  ],
  "bytecode": "0x608060405260646007556802b5e3af16b18800006008556611c37937e080006009553480156200002e57600080fd5b5060405162004d2d38038062004d2d833981016040819052620000519162000219565b60016000556200006133620001aa565b600b80546001600160a01b039384166001600160a01b0319918216178255600c805493909416921691909117909155600f6020527ff4803e074bd026baaf6ed2e288c9515f68c72fb7216eebdd7cae1718a53ec375805463ffffffff199081166001179091557f169f97de0d9a84d840042b17d3c6b9638b3d6fd9024c9eb0c7a306a17b49f88f805482169092179091557fa74ba3945261e09fde15ba3db55005b205e61eeb4ad811ac0faa2b315bffeead80548216606f1790557f45f76dafbbad695564362934e24d72eedc57f9fc1a65f39bca62176cc8296828805482166104571790557f367ccd2d0ac16bf7110a5dffe0801fdc9452a95a1adb7e1a12fe97dd3e9a4edd80548216612b6717905560056000527f6bda57492eba051cb4a12a1e19df47c9755d78165341d4009b1d09b3f361620480549091166201b20717905562000250565b600180546001600160a01b038381166001600160a01b0319831681179093556040519116919082907f8be0079c531659141344cd1fd0a4f28419497f9722a3daafe3b4186f6b6457e090600090a35050565b80516001600160a01b03811681146200021457600080fd5b919050565b600080604083850312156200022c578182fd5b6200023783620001fc565b91506200024760208401620001fc565b90509250929050565b614acd80620002606000396000f3fe608060405234801561001057600080fd5b50600436106102415760003560e01c806388303dbd11610145578063c4937ab9116100bd578063da7429f81161008c578063dcbad90d11610071578063dcbad90d146104df578063f2b3c809146104ff578063f2fde38b1461050857600080fd5b8063da7429f8146104c2578063db19da0d146104d557600080fd5b8063c4937ab914610469578063c5f956af1461047c578063c914914f1461049c578063da4ca039146104af57600080fd5b806398359fa1116101145780639d8ca531116100f95780639d8ca53114610430578063b1829b8214610443578063c38de5391461045657600080fd5b806398359fa1146103fd5780639c3846531461041057600080fd5b806388303dbd1461038b5780638904bf2f1461039e5780638da5cb5b146103be5780638fc3539a146103dc57600080fd5b806331feb565116101d85780636b873788116101a7578063715018a61161018c578063715018a6146103725780637cb583bd1461037a57806380a061601461038357600080fd5b80636b873788146103565780636be4097c1461036957600080fd5b806331feb5651461031c5780633f138d4b14610325578063471aeab41461033a578063686465b81461034d57600080fd5b80631f73664b116102145780631f73664b146102d75780631fe86c6b146102e05780632423807a146102e95780632e530cae1461030957600080fd5b806305531eeb1461024657806307fb5a9c14610272578063127effb21461028957806312a9769d146102ce575b600080fd5b61025961025436600461421d565b61051b565b60405161026994939291906145c5565b60405180910390f35b61027b61371481565b604051908152602001610269565b6003546102a99073ffffffffffffffffffffffffffffffffffffffff1681565b60405173ffffffffffffffffffffffffffffffffffffffff9091168152602001610269565b61027b600a5481565b61027b60085481565b61027b60075481565b6102fc6102f73660046142b1565b6109ce565b60405161026991906146b8565b61027b61031736600461446a565b610b7d565b61027b60095481565b6103386103333660046141f4565b610c2b565b005b6103386103483660046143d1565b610d31565b61027b60065481565b6103386103643660046142b1565b610f0b565b61027b60055481565b610338610f7f565b61027b61012c81565b60055461027b565b610338610399366004614358565b610f93565b600b546102a99073ffffffffffffffffffffffffffffffffffffffff1681565b60015473ffffffffffffffffffffffffffffffffffffffff166102a9565b6103ef6103ea366004614255565b6116bb565b604051610269929190614639565b61033861040b366004614198565b611993565b6002546102a99073ffffffffffffffffffffffffffffffffffffffff1681565b61033861043e3660046142b1565b611c20565b61033861045136600461441d565b611f3a565b6103386104643660046143a2565b6125b2565b61027b6104773660046143f2565b612d69565b6004546102a99073ffffffffffffffffffffffffffffffffffffffff1681565b6103386104aa3660046142e1565b612e49565b6103386104bd3660046141b2565b613658565b6103386104d03660046143d1565b613880565b61027b6205472c81565b600c546102a99073ffffffffffffffffffffffffffffffffffffffff1681565b61027b610bb881565b610338610516366004614198565b6138fd565b73ffffffffffffffffffffffffffffffffffffffff84166000908152601160209081526040808320868452909152812054606091829182919085906105608882614931565b821115610574576105718882614931565b91505b60008267ffffffffffffffff8111156105b6577f4e487b7100000000000000000000000000000000000000000000000000000000600052604160045260246000fd5b6040519080825280602002602001820160405280156105df578160200160208202803683370190505b50905060008367ffffffffffffffff811115610624577f4e487b7100000000000000000000000000000000000000000000000000000000600052604160045260246000fd5b60405190808252806020026020018201604052801561064d578160200160208202803683370190505b50905060008467ffffffffffffffff811115610692577f4e487b7100000000000000000000000000000000000000000000000000000000600052604160045260246000fd5b6040519080825280602002602001820160405280156106bb578160200160208202803683370190505b50905060005b858110156109a857601160008f73ffffffffffffffffffffffffffffffffffffffff1673ffffffffffffffffffffffffffffffffffffffff16815260200190815260200160002060008e81526020019081526020016000208c82610725919061477b565b8154811061075c577f4e487b7100000000000000000000000000000000000000000000000000000000600052603260045260246000fd5b90600052602060002001548482815181106107a0577f4e487b7100000000000000000000000000000000000000000000000000000000600052603260045260246000fd5b602002602001018181525050600e60008583815181106107e9577f4e487b7100000000000000000000000000000000000000000000000000000000600052603260045260246000fd5b6020026020010151815260200190815260200160002060000160009054906101000a900463ffffffff1683828151811061084c577f4e487b7100000000000000000000000000000000000000000000000000000000600052603260045260246000fd5b602002602001019063ffffffff16908163ffffffff1681525050600073ffffffffffffffffffffffffffffffffffffffff16600e60008684815181106108bb577f4e487b7100000000000000000000000000000000000000000000000000000000600052603260045260246000fd5b602090810291909101810151825281019190915260400160002054640100000000900473ffffffffffffffffffffffffffffffffffffffff16141561094a576001828281518110610935577f4e487b7100000000000000000000000000000000000000000000000000000000600052603260045260246000fd5b91151560209283029190910190910152610996565b6000828281518110610985577f4e487b7100000000000000000000000000000000000000000000000000000000600052603260045260246000fd5b911515602092830291909101909101525b806109a081614999565b9150506106c1565b508282826109b6888f61477b565b98509850985098505050505050945094509450949050565b6109d661403a565b6000828152600d60205260409081902081516101a081019092528054829060ff166003811115610a2f577f4e487b7100000000000000000000000000000000000000000000000000000000600052602160045260246000fd5b6003811115610a67577f4e487b7100000000000000000000000000000000000000000000000000000000600052602160045260246000fd5b81526001820154602082015260028201546040808301919091526003830154606083015260048301546080830152805160c081019182905260a09092019190600584019060069082845b815481526020019060010190808311610ab1575050509183525050600b82015460208201526040805160c081018252910190600c830160068282826020028201915b815481526020019060010190808311610af35750505091835250506040805160c081019182905260209092019190601284019060069082845b815481526020019060010190808311610b2c5750505091835250506018820154602082015260198201546040820152601a8201546060820152601b9091015463ffffffff1660809091015292915050565b600060036000858152600d602052604090205460ff166003811115610bcb577f4e487b7100000000000000000000000000000000000000000000000000000000600052602160045260246000fd5b14610bd857506000610c24565b6000848152600d602052604090206019015483118015610c0957506000848152600d60205260409020601801548311155b15610c1657506000610c24565b610c218484846139b1565b90505b9392505050565b610c33613ae3565b600b5473ffffffffffffffffffffffffffffffffffffffff83811691161415610cbd576040517f08c379a000000000000000000000000000000000000000000000000000000000815260206004820152601460248201527f43616e6e6f742062652043414b4520746f6b656e00000000000000000000000060448201526064015b60405180910390fd5b610cde73ffffffffffffffffffffffffffffffffffffffff83163383613b64565b6040805173ffffffffffffffffffffffffffffffffffffffff84168152602081018390527f74545154aac348a3eac92596bd1971957ca94795f4e954ec5f613b55fab78129910160405180910390a15050565b60015473ffffffffffffffffffffffffffffffffffffffff16331480610d6e575060025473ffffffffffffffffffffffffffffffffffffffff1633145b610dd4576040517f08c379a000000000000000000000000000000000000000000000000000000000815260206004820152601560248201527f4e6f74206f776e6572206f7220696e6a6563746f7200000000000000000000006044820152606401610cb4565b60016000838152600d602052604090205460ff166003811115610e20577f4e487b7100000000000000000000000000000000000000000000000000000000600052602160045260246000fd5b14610e87576040517f08c379a000000000000000000000000000000000000000000000000000000000815260206004820152601060248201527f4c6f7474657279206e6f74206f70656e000000000000000000000000000000006044820152606401610cb4565b600b54610eac9073ffffffffffffffffffffffffffffffffffffffff16333084613c38565b6000828152600d60205260408120601a018054839290610ecd90849061477b565b909155505060405181815282907f1bbd659dd628a25f7ff2eabb69c74a56939c539728282275c1c9c1a2d3e340499060200160405180910390a25050565b610f13613ae3565b80610f7a576040517f08c379a000000000000000000000000000000000000000000000000000000000815260206004820152600b60248201527f4d757374206265203e20300000000000000000000000000000000000000000006044820152606401610cb4565b600755565b610f87613ae3565b610f916000613c9c565b565b333b15610ffc576040517f08c379a000000000000000000000000000000000000000000000000000000000815260206004820152601460248201527f436f6e7472616374206e6f7420616c6c6f7765640000000000000000000000006044820152606401610cb4565b333214611065576040517f08c379a000000000000000000000000000000000000000000000000000000000815260206004820152601a60248201527f50726f787920636f6e7472616374206e6f7420616c6c6f7765640000000000006044820152606401610cb4565b61106d613d13565b806110d4576040517f08c379a000000000000000000000000000000000000000000000000000000000815260206004820152601360248201527f4e6f207469636b657420737065636966696564000000000000000000000000006044820152606401610cb4565b600754811115611140576040517f08c379a000000000000000000000000000000000000000000000000000000000815260206004820152601060248201527f546f6f206d616e79207469636b657473000000000000000000000000000000006044820152606401610cb4565b60016000848152600d602052604090205460ff16600381111561118c577f4e487b7100000000000000000000000000000000000000000000000000000000600052602160045260246000fd5b146111f3576040517f08c379a000000000000000000000000000000000000000000000000000000000815260206004820152601360248201527f4c6f7474657279206973206e6f74206f70656e000000000000000000000000006044820152606401610cb4565b6000838152600d6020526040902060020154421061126d576040517f08c379a000000000000000000000000000000000000000000000000000000000815260206004820152600f60248201527f4c6f7474657279206973206f76657200000000000000000000000000000000006044820152606401610cb4565b6000838152600d602052604081206004810154600390910154611291919084613d87565b600b549091506112b99073ffffffffffffffffffffffffffffffffffffffff16333084613c38565b6000848152600d60205260408120601a0180548392906112da90849061477b565b90915550600090505b82811015611673576000848483818110611326577f4e487b7100000000000000000000000000000000000000000000000000000000600052603260045260246000fd5b905060200201602081019061133b91906144a2565b9050620f42408163ffffffff161015801561135f5750621e847f8163ffffffff1611155b6113c5576040517f08c379a000000000000000000000000000000000000000000000000000000000815260206004820152600d60248201527f4f7574736964652072616e6765000000000000000000000000000000000000006044820152606401610cb4565b6000868152601060205260408120906113df600a846149f6565b6113ea906001614793565b63ffffffff1681526020810191909152604001600090812080549161140e83614999565b909155505060008681526010602052604081209061142d6064846149f6565b61143890600b614793565b63ffffffff1681526020810191909152604001600090812080549161145c83614999565b909155505060008681526010602052604081209061147c6103e8846149f6565b61148790606f614793565b63ffffffff168152602081019190915260400160009081208054916114ab83614999565b90915550506000868152601060205260408120906114cb612710846149f6565b6114d790610457614793565b63ffffffff168152602081019190915260400160009081208054916114fb83614999565b909155505060008681526010602052604081209061151c620186a0846149f6565b61152890612b67614793565b63ffffffff1681526020810191909152604001600090812080549161154c83614999565b909155505060008681526010602052604081209061156d620f4240846149f6565b61157a906201b207614793565b63ffffffff1681526020810191909152604001600090812080549161159e83614999565b90915550503360008181526011602090815260408083208a84528252808320600680548254600181018455928652848620909201919091558151808301835263ffffffff808816825281850196875282548652600e90945291842091518254955173ffffffffffffffffffffffffffffffffffffffff16640100000000027fffffffffffffffff000000000000000000000000000000000000000000000000909616931692909217939093179092558154919061165a83614999565b919050555050808061166b90614999565b9150506112e3565b50604051828152849033907fd7d247b583de1023852eef87b48f54354dbec771d01bc2cc49e96094efc322b99060200160405180910390a3506116b66001600055565b505050565b6060808260008167ffffffffffffffff811115611701577f4e487b7100000000000000000000000000000000000000000000000000000000600052604160045260246000fd5b60405190808252806020026020018201604052801561172a578160200160208202803683370190505b50905060008267ffffffffffffffff81111561176f577f4e487b7100000000000000000000000000000000000000000000000000000000600052604160045260246000fd5b604051908082528060200260200182016040528015611798578160200160208202803683370190505b50905060005b8381101561198457600e60008989848181106117e3577f4e487b7100000000000000000000000000000000000000000000000000000000600052603260045260246000fd5b90506020020135815260200190815260200160002060000160009054906101000a900463ffffffff16838281518110611845577f4e487b7100000000000000000000000000000000000000000000000000000000600052603260045260246000fd5b63ffffffff909216602092830291909101909101526000600e818a8a85818110611898577f4e487b7100000000000000000000000000000000000000000000000000000000600052603260045260246000fd5b6020908102929092013583525081019190915260400160002054640100000000900473ffffffffffffffffffffffffffffffffffffffff161415611926576001828281518110611911577f4e487b7100000000000000000000000000000000000000000000000000000000600052603260045260246000fd5b91151560209283029190910190910152611972565b6000828281518110611961577f4e487b7100000000000000000000000000000000000000000000000000000000600052603260045260246000fd5b911515602092830291909101909101525b8061197c81614999565b91505061179e565b509093509150505b9250929050565b61199b613ae3565b60055415806119f6575060036005546000908152600d602052604090205460ff1660038111156119f4577f4e487b7100000000000000000000000000000000000000000000000000000000600052602160045260246000fd5b145b611a5c576040517f08c379a000000000000000000000000000000000000000000000000000000000815260206004820152601860248201527f4c6f7474657279206e6f7420696e20636c61696d61626c6500000000000000006044820152606401610cb4565b8073ffffffffffffffffffffffffffffffffffffffff1663b37217a4600554600654604051602001611a98929190918252602082015260400190565b604080518083037fffffffffffffffffffffffffffffffffffffffffffffffffffffffffffffffe001815290829052805160209091012060e083901b7fffffffff000000000000000000000000000000000000000000000000000000001682526004820152602401600060405180830381600087803b158015611b1a57600080fd5b505af1158015611b2e573d6000803e3d6000fd5b505050508073ffffffffffffffffffffffffffffffffffffffff1663a1c4f55a6040518163ffffffff1660e01b815260040160206040518083038186803b158015611b7857600080fd5b505afa158015611b8c573d6000803e3d6000fd5b505050506040513d601f19601f82011682018060405250810190611bb091906144be565b50600c80547fffffffffffffffffffffffff00000000000000000000000000000000000000001673ffffffffffffffffffffffffffffffffffffffff83169081179091556040517f383f8cb39dfa7c3fb901a460dd449ea924868f0a92ff03da64740fffa5f1de6290600090a250565b60035473ffffffffffffffffffffffffffffffffffffffff163314611ca1576040517f08c379a000000000000000000000000000000000000000000000000000000000815260206004820152600c60248201527f4e6f74206f70657261746f7200000000000000000000000000000000000000006044820152606401610cb4565b611ca9613d13565b60016000828152600d602052604090205460ff166003811115611cf5577f4e487b7100000000000000000000000000000000000000000000000000000000600052602160045260246000fd5b14611d5c576040517f08c379a000000000000000000000000000000000000000000000000000000000815260206004820152601060248201527f4c6f7474657279206e6f74206f70656e000000000000000000000000000000006044820152606401610cb4565b6000818152600d60205260409020600201544211611dd6576040517f08c379a000000000000000000000000000000000000000000000000000000000815260206004820152601060248201527f4c6f7474657279206e6f74206f766572000000000000000000000000000000006044820152606401610cb4565b6006546000828152600d6020908152604091829020601901839055600c5482519182018590529181019290925273ffffffffffffffffffffffffffffffffffffffff169063b37217a490606001604080518083037fffffffffffffffffffffffffffffffffffffffffffffffffffffffffffffffe001815290829052805160209091012060e083901b7fffffffff000000000000000000000000000000000000000000000000000000001682526004820152602401600060405180830381600087803b158015611ea557600080fd5b505af1158015611eb9573d6000803e3d6000fd5b5050506000828152600d602090815260409182902080547fffffffffffffffffffffffffffffffffffffffffffffffffffffffffffffff0016600217905560065491519182528392507f3728e75294796694d59d2ffced9c394279baf7b9ebd2702db43f5f04bac67929910160405180910390a2611f376001600055565b50565b60035473ffffffffffffffffffffffffffffffffffffffff163314611fbb576040517f08c379a000000000000000000000000000000000000000000000000000000000815260206004820152600c60248201527f4e6f74206f70657261746f7200000000000000000000000000000000000000006044820152606401610cb4565b6005541580612016575060036005546000908152600d602052604090205460ff166003811115612014577f4e487b7100000000000000000000000000000000000000000000000000000000600052602160045260246000fd5b145b61207c576040517f08c379a000000000000000000000000000000000000000000000000000000000815260206004820152601960248201527f4e6f742074696d6520746f207374617274206c6f7474657279000000000000006044820152606401610cb4565b6137146120894287614931565b1180156120a157506205472c61209f4287614931565b105b612107576040517f08c379a000000000000000000000000000000000000000000000000000000000815260206004820152601f60248201527f4c6f7474657279206c656e677468206f757473696465206f662072616e6765006044820152606401610cb4565b600954841015801561211b57506008548411155b612181576040517f08c379a000000000000000000000000000000000000000000000000000000000815260206004820152601160248201527f4f757473696465206f66206c696d6974730000000000000000000000000000006044820152606401610cb4565b61012c8310156121ed576040517f08c379a000000000000000000000000000000000000000000000000000000000815260206004820152601860248201527f446973636f756e742064697669736f7220746f6f206c6f7700000000000000006044820152606401610cb4565b610bb8811115612259576040517f08c379a000000000000000000000000000000000000000000000000000000000815260206004820152601560248201527f54726561737572792066656520746f6f206869676800000000000000000000006044820152606401610cb4565b60a082013560808301356060840135604085013561227c6020870135873561477b565b612286919061477b565b612290919061477b565b61229a919061477b565b6122a4919061477b565b6127101461230e576040517f08c379a000000000000000000000000000000000000000000000000000000000815260206004820152601860248201527f52657761726473206d75737420657175616c20313030303000000000000000006044820152606401610cb4565b6005805490600061231e83614999565b9091555050604080516101a0810190915280600181526020014281526020018681526020018581526020018481526020018360068060200260405190810160405280929190826006602002808284376000920182905250928452505060208083018590526040805160c080820183528482528184018590528183018590526060808301869052608080840187905260a080850188905285890194909452845180840186528781528087018890528086018890528083018890528082018890528085018890529188019190915260065490870181905291860191909152600a549085015260e09093018290526005548252600d9052208151815482907fffffffffffffffffffffffffffffffffffffffffffffffffffffffffffffff00166001836003811115612476577f4e487b7100000000000000000000000000000000000000000000000000000000600052602160045260246000fd5b02179055506020820151600182015560408201516002820155606082015160038201556080820151600482015560a08201516124b890600583019060066140bb565b5060c0820151600b82015560e08201516124d890600c83019060066140bb565b506101008201516124ef90601283019060066140bb565b5061012082015160188201556101408201516019820155610160820151601a82015561018090910151601b90910180547fffffffffffffffffffffffffffffffffffffffffffffffffffffffff000000001663ffffffff909216919091179055600554600654600a5460408051428152602081018a9052908101889052606081019290925260808201527f367e70f8c0e0c0a6504d92172bda155c02022d532fc85b5d66a9c49e31c8bc779060a00160405180910390a250506000600a55505050565b60035473ffffffffffffffffffffffffffffffffffffffff163314612633576040517f08c379a000000000000000000000000000000000000000000000000000000000815260206004820152600c60248201527f4e6f74206f70657261746f7200000000000000000000000000000000000000006044820152606401610cb4565b61263b613d13565b60026000838152600d602052604090205460ff166003811115612687577f4e487b7100000000000000000000000000000000000000000000000000000000600052602160045260246000fd5b146126ee576040517f08c379a000000000000000000000000000000000000000000000000000000000815260206004820152601160248201527f4c6f7474657279206e6f7420636c6f73650000000000000000000000000000006044820152606401610cb4565b600c60009054906101000a900473ffffffffffffffffffffffffffffffffffffffff1673ffffffffffffffffffffffffffffffffffffffff1663fbe5d9176040518163ffffffff1660e01b815260040160206040518083038186803b15801561275657600080fd5b505afa15801561276a573d6000803e3d6000fd5b505050506040513d601f19601f8201168201806040525081019061278e91906142c9565b82146127f6576040517f08c379a000000000000000000000000000000000000000000000000000000000815260206004820152601160248201527f4e756d62657273206e6f7420647261776e0000000000000000000000000000006044820152606401610cb4565b600c54604080517fa1c4f55a000000000000000000000000000000000000000000000000000000008152905160009273ffffffffffffffffffffffffffffffffffffffff169163a1c4f55a916004808301926020929190829003018186803b15801561286157600080fd5b505afa158015612875573d6000803e3d6000fd5b505050506040513d601f19601f8201168201806040525081019061289991906144be565b6000848152600d60205260408120600b0154919250908190612710906128bf9082614931565b6000878152600d60205260409020601a01546128db91906148f4565b6128e591906147bb565b90506000805b60068163ffffffff161015612c49576000612907826005614948565b90506000612916826001614793565b61292190600a614816565b61292b90886149f6565b63ffffffff8084166000908152600f602052604090205461294d929116614793565b60008a815260106020908152604080832063ffffffff8516845290915290205490915061297b908790614931565b60008a8152600d6020526040902060120163ffffffff8416600681106129ca577f4e487b7100000000000000000000000000000000000000000000000000000000600052603260045260246000fd5b0155600089815260106020908152604080832063ffffffff851684529091529020546129f7908790614931565b15612b6b576000898152600d6020526040902060050163ffffffff831660068110612a4b577f4e487b7100000000000000000000000000000000000000000000000000000000600052603260045260246000fd5b015415612b6657600089815260106020908152604080832063ffffffff8516845290915290205461271090612a81908890614931565b60008b8152600d60205260409020879060050163ffffffff861660068110612ad2577f4e487b7100000000000000000000000000000000000000000000000000000000600052603260045260246000fd5b0154612ade91906148f4565b612ae891906147bb565b612af291906147bb565b60008a8152600d60205260409020600c0163ffffffff841660068110612b41577f4e487b7100000000000000000000000000000000000000000000000000000000600052603260045260246000fd5b0155600089815260106020908152604080832063ffffffff8516845290915290205495505b612c34565b6000898152600d60205260408120600c0163ffffffff841660068110612bba577f4e487b7100000000000000000000000000000000000000000000000000000000600052603260045260246000fd5b01556000898152600d6020526040902061271090869060050163ffffffff851660068110612c11577f4e487b7100000000000000000000000000000000000000000000000000000000600052603260045260246000fd5b0154612c1d91906148f4565b612c2791906147bb565b612c31908561477b565b93505b50508080612c41906149d2565b9150506128eb565b506000868152600d60205260409020601b8101805463ffffffff87167fffffffffffffffffffffffffffffffffffffffffffffffffffffffff0000000090911617905580547fffffffffffffffffffffffffffffffffffffffffffffffffffffffffffffff001660031790558415612cc157600a5560005b6000868152600d60205260409020601a0154612cde908390614931565b612ce8908261477b565b600454600b54919250612d159173ffffffffffffffffffffffffffffffffffffffff908116911683613b64565b6005546040805163ffffffff87168152602081018690527f98e31a6607b8b15b4d5b91de54f4c09ffe4c4cf162aa532c70b5213754e2e703910160405180910390a250505050612d656001600055565b5050565b600061012c841015612dd7576040517f08c379a000000000000000000000000000000000000000000000000000000000815260206004820152601f60248201527f4d757374206265203e3d204d494e5f444953434f554e545f44495649534f52006044820152606401610cb4565b81612e3e576040517f08c379a000000000000000000000000000000000000000000000000000000000815260206004820152601d60248201527f4e756d626572206f66207469636b657473206d757374206265203e20300000006044820152606401610cb4565b610c21848484613d87565b333b15612eb2576040517f08c379a000000000000000000000000000000000000000000000000000000000815260206004820152601460248201527f436f6e7472616374206e6f7420616c6c6f7765640000000000000000000000006044820152606401610cb4565b333214612f1b576040517f08c379a000000000000000000000000000000000000000000000000000000000815260206004820152601a60248201527f50726f787920636f6e7472616374206e6f7420616c6c6f7765640000000000006044820152606401610cb4565b612f23613d13565b828114612f8c576040517f08c379a000000000000000000000000000000000000000000000000000000000815260206004820152600f60248201527f4e6f742073616d65206c656e67746800000000000000000000000000000000006044820152606401610cb4565b82612ff3576040517f08c379a000000000000000000000000000000000000000000000000000000000815260206004820152601160248201527f4c656e677468206d757374206265203e300000000000000000000000000000006044820152606401610cb4565b60075483111561305f576040517f08c379a000000000000000000000000000000000000000000000000000000000815260206004820152601060248201527f546f6f206d616e79207469636b657473000000000000000000000000000000006044820152606401610cb4565b60036000868152600d602052604090205460ff1660038111156130ab577f4e487b7100000000000000000000000000000000000000000000000000000000600052602160045260246000fd5b14613112576040517f08c379a000000000000000000000000000000000000000000000000000000000815260206004820152601560248201527f4c6f7474657279206e6f7420636c61696d61626c6500000000000000000000006044820152606401610cb4565b6000805b848110156135e4576006848483818110613159577f4e487b7100000000000000000000000000000000000000000000000000000000600052603260045260246000fd5b905060200201602081019061316e91906144a2565b63ffffffff16106131db576040517f08c379a000000000000000000000000000000000000000000000000000000000815260206004820152601460248201527f427261636b6574206f7574206f662072616e67650000000000000000000000006044820152606401610cb4565b6000868683818110613216577f4e487b7100000000000000000000000000000000000000000000000000000000600052603260045260246000fd5b90506020020135905080600d60008a8152602001908152602001600020601901541161329e576040517f08c379a000000000000000000000000000000000000000000000000000000000815260206004820152601160248201527f5469636b6574496420746f6f20686967680000000000000000000000000000006044820152606401610cb4565b6000888152600d6020526040902060180154811015613319576040517f08c379a000000000000000000000000000000000000000000000000000000000815260206004820152601060248201527f5469636b6574496420746f6f206c6f77000000000000000000000000000000006044820152606401610cb4565b6000818152600e6020526040902054640100000000900473ffffffffffffffffffffffffffffffffffffffff1633146133ae576040517f08c379a000000000000000000000000000000000000000000000000000000000815260206004820152600d60248201527f4e6f7420746865206f776e6572000000000000000000000000000000000000006044820152606401610cb4565b6000818152600e6020526040812080547fffffffffffffffff0000000000000000000000000000000000000000ffffffff16905561343a8983888887818110613420577f4e487b7100000000000000000000000000000000000000000000000000000000600052603260045260246000fd5b905060200201602081019061343591906144a2565b6139b1565b9050806134a3576040517f08c379a000000000000000000000000000000000000000000000000000000000815260206004820152601960248201527f4e6f207072697a6520666f72207468697320627261636b6574000000000000006044820152606401610cb4565b8585848181106134dc577f4e487b7100000000000000000000000000000000000000000000000000000000600052603260045260246000fd5b90506020020160208101906134f191906144a2565b63ffffffff166005146135c35761355c898388888781811061353c577f4e487b7100000000000000000000000000000000000000000000000000000000600052603260045260246000fd5b905060200201602081019061355191906144a2565b613435906001614793565b156135c3576040517f08c379a000000000000000000000000000000000000000000000000000000000815260206004820152601660248201527f427261636b6574206d75737420626520686967686572000000000000000000006044820152606401610cb4565b6135cd818561477b565b9350505080806135dc90614999565b915050613116565b50600b546136099073ffffffffffffffffffffffffffffffffffffffff163383613b64565b6040805182815260208101869052879133917f0f5fca62da8fb5d95525b49e5eaa7b20bc6bd9e2f6b64b493442d1c0bd6ef486910160405180910390a3506136516001600055565b5050505050565b613660613ae3565b73ffffffffffffffffffffffffffffffffffffffff83166136dd576040517f08c379a000000000000000000000000000000000000000000000000000000000815260206004820152601660248201527f43616e6e6f74206265207a65726f2061646472657373000000000000000000006044820152606401610cb4565b73ffffffffffffffffffffffffffffffffffffffff821661375a576040517f08c379a000000000000000000000000000000000000000000000000000000000815260206004820152601660248201527f43616e6e6f74206265207a65726f2061646472657373000000000000000000006044820152606401610cb4565b73ffffffffffffffffffffffffffffffffffffffff81166137d7576040517f08c379a000000000000000000000000000000000000000000000000000000000815260206004820152601660248201527f43616e6e6f74206265207a65726f2061646472657373000000000000000000006044820152606401610cb4565b6003805473ffffffffffffffffffffffffffffffffffffffff8581167fffffffffffffffffffffffff0000000000000000000000000000000000000000928316811790935560048054868316908416811790915560028054928616929093168217909255604080519384526020840192909252908201527f3e945b7660001d46cfd5e729545f7f0b6c65bdee54066a91c7acad703f1b731e9060600160405180910390a1505050565b613888613ae3565b808211156138f2576040517f08c379a000000000000000000000000000000000000000000000000000000000815260206004820152601b60248201527f6d696e5072696365206d757374206265203c206d6178507269636500000000006044820152606401610cb4565b600991909155600855565b613905613ae3565b73ffffffffffffffffffffffffffffffffffffffff81166139a8576040517f08c379a000000000000000000000000000000000000000000000000000000000815260206004820152602660248201527f4f776e61626c653a206e6577206f776e657220697320746865207a65726f206160448201527f64647265737300000000000000000000000000000000000000000000000000006064820152608401610cb4565b611f3781613c9c565b6000838152600d60209081526040808320601b0154858452600e90925282205463ffffffff9182169116826139e7856001614793565b6139f290600a614816565b6139fc90846149f6565b63ffffffff8087166000908152600f6020526040902054613a1e929116614793565b90506000613a2d866001614793565b613a3890600a614816565b613a4290846149f6565b63ffffffff8088166000908152600f6020526040902054613a64929116614793565b90508063ffffffff168263ffffffff161415613ad6576000888152600d60205260409020600c0163ffffffff871660068110613ac9577f4e487b7100000000000000000000000000000000000000000000000000000000600052603260045260246000fd5b0154945050505050610c24565b6000945050505050610c24565b60015473ffffffffffffffffffffffffffffffffffffffff163314610f91576040517f08c379a000000000000000000000000000000000000000000000000000000000815260206004820181905260248201527f4f776e61626c653a2063616c6c6572206973206e6f7420746865206f776e65726044820152606401610cb4565b60405173ffffffffffffffffffffffffffffffffffffffff83166024820152604481018290526116b69084907fa9059cbb00000000000000000000000000000000000000000000000000000000906064015b604080517fffffffffffffffffffffffffffffffffffffffffffffffffffffffffffffffe08184030181529190526020810180517bffffffffffffffffffffffffffffffffffffffffffffffffffffffff167fffffffff0000000000000000000000000000000000000000000000000000000090931692909217909152613dbe565b60405173ffffffffffffffffffffffffffffffffffffffff80851660248301528316604482015260648101829052613c969085907f23b872dd0000000000000000000000000000000000000000000000000000000090608401613bb6565b50505050565b6001805473ffffffffffffffffffffffffffffffffffffffff8381167fffffffffffffffffffffffff0000000000000000000000000000000000000000831681179093556040519116919082907f8be0079c531659141344cd1fd0a4f28419497f9722a3daafe3b4186f6b6457e090600090a35050565b60026000541415613d80576040517f08c379a000000000000000000000000000000000000000000000000000000000815260206004820152601f60248201527f5265656e7472616e637947756172643a207265656e7472616e742063616c6c006044820152606401610cb4565b6002600055565b60008382613d9682600161477b565b613da09190614931565b613daa84866148f4565b613db491906148f4565b610c2191906147bb565b6000613e20826040518060400160405280602081526020017f5361666545524332303a206c6f772d6c6576656c2063616c6c206661696c65648152508573ffffffffffffffffffffffffffffffffffffffff16613eca9092919063ffffffff16565b8051909150156116b65780806020019051810190613e3e9190614295565b6116b6576040517f08c379a000000000000000000000000000000000000000000000000000000000815260206004820152602a60248201527f5361666545524332303a204552433230206f7065726174696f6e20646964206e60448201527f6f742073756363656564000000000000000000000000000000000000000000006064820152608401610cb4565b6060610c218484600085856000808673ffffffffffffffffffffffffffffffffffffffff168587604051613efe91906145a9565b60006040518083038185875af1925050503d8060008114613f3b576040519150601f19603f3d011682016040523d82523d6000602084013e613f40565b606091505b5091509150613f5187838387613f5e565b925050505b949350505050565b60608315613ff1578251613fea5773ffffffffffffffffffffffffffffffffffffffff85163b613fea576040517f08c379a000000000000000000000000000000000000000000000000000000000815260206004820152601d60248201527f416464726573733a2063616c6c20746f206e6f6e2d636f6e74726163740000006044820152606401610cb4565b5081613f56565b613f5683838151156140065781518083602001fd5b806040517f08c379a0000000000000000000000000000000000000000000000000000000008152600401610cb49190614667565b604080516101a081019091528060008152602001600081526020016000815260200160008152602001600081526020016140726140f9565b8152602001600081526020016140866140f9565b81526020016140936140f9565b8152602001600081526020016000815260200160008152602001600063ffffffff1681525090565b82600681019282156140e9579160200282015b828111156140e95782518255916020019190600101906140ce565b506140f5929150614117565b5090565b6040518060c001604052806006906020820280368337509192915050565b5b808211156140f55760008155600101614118565b803573ffffffffffffffffffffffffffffffffffffffff8116811461415057600080fd5b919050565b60008083601f840112614166578182fd5b50813567ffffffffffffffff81111561417d578182fd5b6020830191508360208260051b850101111561198c57600080fd5b6000602082840312156141a9578081fd5b610c248261412c565b6000806000606084860312156141c6578182fd5b6141cf8461412c565b92506141dd6020850161412c565b91506141eb6040850161412c565b90509250925092565b60008060408385031215614206578182fd5b61420f8361412c565b946020939093013593505050565b60008060008060808587031215614232578081fd5b61423b8561412c565b966020860135965060408601359560600135945092505050565b60008060208385031215614267578182fd5b823567ffffffffffffffff81111561427d578283fd5b61428985828601614155565b90969095509350505050565b6000602082840312156142a6578081fd5b8151610c2481614a77565b6000602082840312156142c2578081fd5b5035919050565b6000602082840312156142da578081fd5b5051919050565b6000806000806000606086880312156142f8578081fd5b85359450602086013567ffffffffffffffff80821115614316578283fd5b61432289838a01614155565b9096509450604088013591508082111561433a578283fd5b5061434788828901614155565b969995985093965092949392505050565b60008060006040848603121561436c578283fd5b83359250602084013567ffffffffffffffff811115614389578283fd5b61439586828701614155565b9497909650939450505050565b600080604083850312156143b4578182fd5b8235915060208301356143c681614a77565b809150509250929050565b600080604083850312156143e3578182fd5b50508035926020909101359150565b600080600060608486031215614406578283fd5b505081359360208301359350604090920135919050565b60008060008060006101408688031215614435578283fd5b853594506020860135935060408601359250610120860187811115614458578182fd5b94979396509194606001933592915050565b60008060006060848603121561447e578081fd5b8335925060208401359150604084013561449781614a85565b809150509250925092565b6000602082840312156144b3578081fd5b8135610c2481614a85565b6000602082840312156144cf578081fd5b8151610c2481614a85565b6000815180845260208085019450808401835b8381101561450b5781511515875295820195908201906001016144ed565b509495945050505050565b8060005b6006811015613c9657815184526020938401939091019060010161451a565b6000815180845260208085019450808401835b8381101561450b57815163ffffffff168752958201959082019060010161454c565b600481106145a5577f4e487b7100000000000000000000000000000000000000000000000000000000600052602160045260246000fd5b9052565b600082516145bb81846020870161496d565b9190910192915050565b6080808252855190820181905260009060209060a0840190828901845b828110156145fe578151845292840192908401906001016145e2565b505050838103828501526146128188614539565b915050828103604084015261462781866144da565b91505082606083015295945050505050565b60408152600061464c6040830185614539565b828103602084015261465e81856144da565b95945050505050565b602081526000825180602084015261468681604085016020870161496d565b601f017fffffffffffffffffffffffffffffffffffffffffffffffffffffffffffffffe0169190910160400192915050565b6000610380820190506146cc82845161456e565b6020830151602083015260408301516040830152606083015160608301526080830151608083015260a083015161470660a0840182614516565b5060c0830151610160818185015260e0850151915061018061472a81860184614516565b6101008601519250614740610240860184614516565b6101208601516103008601526101408601516103208601529085015161034085015284015163ffffffff811661036085015290505092915050565b6000821982111561478e5761478e614a19565b500190565b600063ffffffff8083168185168083038211156147b2576147b2614a19565b01949350505050565b6000826147ca576147ca614a48565b500490565b60018163ffffffff825b8086111561480d578282048311156147f3576147f3614a19565b8086161561480057928202925b94851c94918002916147d9565b50509250929050565b600063ffffffff613f56818516828516600082614835575060016148ee565b81614842575060006148ee565b8160018114614858576002811461486257614893565b60019150506148ee565b60ff84111561487357614873614a19565b6001841b915063ffffffff82111561488d5761488d614a19565b506148ee565b5060208310610133831016604e8410600b84101617156148ca575081810a63ffffffff8111156148c5576148c5614a19565b6148ee565b6148d483836147cf565b8063ffffffff048211156148ea576148ea614a19565b0290505b92915050565b6000817fffffffffffffffffffffffffffffffffffffffffffffffffffffffffffffffff048311821515161561492c5761492c614a19565b500290565b60008282101561494357614943614a19565b500390565b600063ffffffff8381169083168181101561496557614965614a19565b039392505050565b60005b83811015614988578181015183820152602001614970565b83811115613c965750506000910152565b60007fffffffffffffffffffffffffffffffffffffffffffffffffffffffffffffffff8214156149cb576149cb614a19565b5060010190565b600063ffffffff808316818114156149ec576149ec614a19565b6001019392505050565b600063ffffffff80841680614a0d57614a0d614a48565b92169190910692915050565b7f4e487b7100000000000000000000000000000000000000000000000000000000600052601160045260246000fd5b7f4e487b7100000000000000000000000000000000000000000000000000000000600052601260045260246000fd5b8015158114611f3757600080fd5b63ffffffff81168114611f3757600080fdfea2646970667358221220e48dcde89757f496cb477e40831c2ee9938a7890fa18b61c65b941b630623dcc64736f6c63430008040033",
  "linkReferences": {},
  "deployedLinkReferences": {}
}